:020000040000FA
:100000000C9463000C948B000C948B000C948B006C
:100010000C948B000C948B000C948B000C948B0034
:100020000C948B000C948B000C948B000C948B0024
:100030000C948B000C948B000C948B000C948B0014
:100040000C9490040C948B000C9400050C94DA042E
:100050000C948B000C948B000C948B000C948B00F4
:100060000C948B000C948B000000000024002700EF
:100070002A0000000000250028002B0000000000DE
:1000800023002600290004040404040404040202DA
:100090000202020203030303030301020408102007
:1000A0004080010204081020010204081020000012
:1000B0000008000201000003040700000000000027
:1000C000000032054A0711241FBECFEFD8E0DEBF83
:1000D000CDBF22E0A6E4B1E001C01D92AF36B20769
:1000E000E1F711E0A0E0B1E0EEEAF3E102C0059033
:1000F0000D92A634B107D9F710E0C2E6D0E004C0F3
:100100002197FE010E94D207C136D107C9F70E948C
:10011000DA050C94CA090C94000096E0899FD0017E
:100120001124AA50BE4F90967C936E935F9791E0F6
:1001300091969C939197E0916302F0916402909163
:100140006202992339F0309751F0811108C08091F3
:1001500012020994309719F05C968C91FACF0895A9
:10016000833081F028F4813099F08230A9F008952D
:100170008730A9F08830C9F08430B1F480918000D4
:100180008F7D03C0809180008F77809380000895D9
:1001900084B58F7784BD089584B58F7DFBCF809122
:1001A000B0008F778093B00008958091B0008F7D6C
:1001B000F9CFCF93DF93282F30E0F901E255FF4FBD
:1001C0008491F901E656FF4FD491F901EA57FF4FA8
:1001D000C491CC23A1F081110E94B000EC2FF0E07B
:1001E000EE0FFF1FE458FF4FA591B491EC91ED2362
:1001F00081E090E009F480E0DF91CF91089580E004
:1002000090E0FACF862F0C94D9001F93CF93DF9301
:10021000282F30E0F901E255FF4F8491F901E656AD
:10022000FF4FD491F901EA57FF4FC491CC23A9F0B5
:10023000162F81110E94B000EC2FF0E0EE0FFF1F8F
:10024000EE58FF4FA591B4918FB7F894EC9111112E
:1002500008C0D095DE23DC938FBFDF91CF911F9133
:100260000895DE2BF8CF862F642F0C940501CF93D1
:10027000DF9390E0FC01E656FF4F24918A579F4F91
:10028000FC0184918823C9F090E0880F991FFC013C
:10029000E859FF4FA591B491FC01EE58FF4FC5916D
:1002A000D49161110DC09FB7F8948C912095822351
:1002B0008C938881282328839FBFDF91CF91089555
:1002C000623051F49FB7F8943C91822F809583233C
:1002D0008C93E8812E2BEFCF8FB7F894EC912E2BD7
:1002E0002C938FBFEACF862F642F0C9437012FB742
:1002F000F89460915301709154018091550190914F
:1003000056012FBF08950F931F93CF93DF93C82FEC
:10031000D62F86E0C89FF0011124EA50FE4F11A2AB
:10032000878D90A181309105F1F058F082309105D0
:10033000F1F1039709F440C0DF91CF911F910F9124
:1003400008956623C9F361E070E08C2F0E948D0050
:100350000E94770160934E0270934F028093500287
:1003600090935102E9CF0E94770100914E021091C3
:100370004F022091500230915102AB01BC01401B51
:10038000510B620B730B8091600290916102B0E09F
:10039000A0E084179507A607B70748F462E070E06D
:1003A0008C2FDF91CF911F910F910C948D0063E002
:1003B00070E0D111C1CFF4CF70E060E0F1CF6F9267
:1003C0007F928F929F92AF92BF92CF92DF92EF92E5
:1003D000FF920F931F93CF93DF9381E0809362028C
:1003E0000E94770100915202109153022091540211
:1003F00030915502AB01BC01401B510B620B730BDA
:1004000080915E0290915F02B0E0A0E084179507B2
:10041000A607B70708F014C1C0E080915C02C817B6
:1004200060F4E0915802F0915902EC0FF11D62E086
:1004300080810E943701CF5FF0CF712C812C912CED
:100440005401839480915D02781608F05FC0072DF7
:1004500010E0E0915A02F0915B02E00FF11F61E0C1
:1004600080810E943701E0915A02F0915B02E00F17
:10047000F11F60E080810E940501D501C401072CB5
:1004800004C0880F991FAA1FBB1F0A94D2F76C01E2
:100490007C01E094F094612C80915C026816F8F481
:1004A000C62DD0E0E0915802F0915902EC0FFD1FEB
:1004B00080810E94D9002496CC0FDD1FCA50DE4FE8
:1004C000892B41F4888199818C299D29998388837E
:1004D0006394E2CF888199818E219F21F7CFE091AB
:1004E0005A02F0915B02E00FF11F61E080810E94EF
:1004F000050180915A0290915B02080F191F60E07C
:10050000F80180810E94370173949CCFC6EFD1E03F
:10051000FE018FEF9FEF278D30A1232B21F4148E46
:10052000968F858F11A2369622E0E233F20799F773
:10053000F12C96E0D92E80915C02F81608F050C09C
:10054000E12C0F2D10E0000F111F02501E4F2091C3
:100550005D02E21608F042C0F801608171810E2C44
:1005600002C0769567950A94E2F7F29E90011124F5
:100570002E0D311DE6EFF1E080E0458D568D2417FC
:10058000350709F461C08F5F36968A30B1F760FF96
:1005900023C0E6EFF1E090E080E0448D411117C008
:1005A000E0915602F0915702E20FF31F4081D89E6E
:1005B000F001D99EF00D1124EA50FE4F448F368F82
:1005C000258F10A2178E61E00E94830105C001965D
:1005D00036968A30910509F7E394B9CFF394ABCFFF
:1005E00010E089A18111182F2696F2E0C233DF07AF
:1005F000C1F70E9477016093520270935302809377
:100600005402909355021123D9F080911702882348
:10061000B9F08091150290911602019789F48091AA
:100620001202DF91CF911F910F91FF90EF90DF9019
:10063000CF90BF90AF909F908F907F906F900895D4
:100640001092620280E0EDCF6170BECF0895AF924C
:10065000BF92CF92DF92EF92FF920F931F93CF93AF
:10066000DF936C017B018B01040F151FEB015E0111
:10067000AE18BF08C017D10759F06991D601ED91A6
:10068000FC910190F081E02DC6010995892B79F745
:10069000C501DF91CF911F910F91FF90EF90DF90F7
:1006A000CF90BF90AF900895FC01538D448D252FBE
:1006B00030E0842F90E0821B930B541710F0CF96FC
:1006C000089501970895FC01918D828D981761F02E
:1006D000A28DAE0FBF2FB11D5D968C91928D9F5F45
:1006E0009F73928F90E008958FEF9FEF0895FC0124
:1006F000918D828D981731F0828DE80FF11D858DD7
:1007000090E008958FEF9FEF0895FC01918D228D69
:10071000892F90E0805C9F4F821B91098F739927EE
:10072000089587E591E00E94850321E0892B09F473
:1007300020E0822F089580E090E0892B29F00E942C
:10074000910381110C9400000895FC01A48DA80F61
:10075000B92FB11DA35ABF4F2C91848D90E0019603
:100760008F739927848FA689B7892C93A089B18923
:100770008C91837080648C93938D848D981306C0C4
:100780000288F389E02D80818F7D80830895EF9228
:10079000FF920F931F93CF93DF93EC0181E0888F3B
:1007A0009B8D8C8D98131AC0E889F989808185FF0B
:1007B00015C09FB7F894EE89FF896083E889F989AD
:1007C00080818370806480839FBF81E090E0DF91AF
:1007D000CF911F910F91FF90EF900895F62E0B8D02
:1007E00010E00F5F1F4F0F731127E02E8C8D8E11BD
:1007F0000CC00FB607FCFACFE889F989808185FF24
:10080000F5CFCE010E94A503F1CFEB8DEC0FFD2FAC
:10081000F11DE35AFF4FF0829FB7F8940B8FEA89DE
:10082000FB8980818062CFCFCF93DF93EC01888DED
:100830008823B9F0AA89BB89E889F9898C9185FD5B
:1008400003C0808186FD0DC00FB607FCF7CF8C91E9
:1008500085FFF2CF808185FFEDCFCE010E94A503F9
:10086000E9CFDF91CF910895CF93DF93FC01019001
:100870000020E9F73197AF01481B590BBC0187E510
:1008800091E00E942703EC0142E050E065E371E053
:1008900087E591E00E9427038C0F9D1FDF91CF9188
:1008A0000895EF92FF920F931F93CF93DF93EC0184
:1008B0007B018A0188819981009729F02A813B81F7
:1008C0002417350788F4B8016F5F7F4F0E94FD0839
:1008D000009791F0998388831B830A832C813D8143
:1008E000232B11F4FC0110821D830C83B701888136
:1008F00099810E94C3090CC088819981009711F0E9
:100900000E947408198218821D821C821B821A821E
:10091000CE01DF91CF911F910F91FF90EF9008953D
:100920001F920F920FB60F9211242F933F938F9324
:100930009F93AF93BF938091530190915401A091E5
:100940005501B09156013091520123E0230F2D370C
:1009500058F50196A11DB11D2093520180935301BA
:1009600090935401A0935501B093560180914E018C
:1009700090914F01A0915001B09151010196A11D9C
:10098000B11D80934E0190934F01A0935001B093FD
:100990005101BF91AF919F918F913F912F910F90F6
:1009A0000FBE0F901F90189526E8230F0296A11DE9
:1009B000B11DD2CF1F920F920FB60F9211242F9319
:1009C0003F934F935F936F937F938F939F93AF93D7
:1009D000BF93EF93FF9387E591E00E94A503FF91FA
:1009E000EF91BF91AF919F918F917F916F915F91A7
:1009F0004F913F912F910F900FBE0F901F90189520
:100A00001F920F920FB60F9211242F938F939F93E3
:100A1000EF93FF93E0916701F09168018081E0918D
:100A20006D01F0916E0182FD1BC09081809170017B
:100A30008F5F8F7320917101821741F0E0917001F7
:100A4000F0E0E95AFE4F958F80937001FF91EF918E
:100A50009F918F912F910F900FBE0F901F9018951F
:100A60008081F4CF10925A011092590188EE93E0E0
:100A7000A0E0B0E080935B0190935C01A0935D01E6
:100A8000B0935E018DE191E09093580180935701FE
:100A900085EC90E0909364018093630184EC90E096
:100AA000909366018093650180EC90E090936801DB
:100AB0008093670181EC90E090936A0180936901D3
:100AC00082EC90E090936C0180936B0186EC90E057
:100AD00090936E0180936D011092700110927101DC
:100AE000109272011092730184E690E09093F501E8
:100AF0008093F401109266021092650210926802CF
:100B00001092670210926A021092690244E050E06B
:100B100068E371E085E692E00E9451041092F801CA
:100B20001092FC011092FB011092FD018FE291E006
:100B30009093F7018093F601E2E1F2E010821482D3
:100B400013821582369682E0EE34F807B9F783E017
:100B500091E0909359028093580280E091E0909345
:100B60005B0280935A0284E080935C0283E080936E
:100B70005D0287E091E090935702809356028AE0ED
:100B800090E090935F0280935E0284EF91E09093F7
:100B900061028093600210926402109263021092CC
:100BA0005202109253021092540210925502109267
:100BB00062020895CF93DF93CDB7DEB7A7970FB644
:100BC000F894DEBF0FBECDBF789484B5826084BD3B
:100BD00084B5816084BD85B5826085BD85B5816041
:100BE00085BD80916E00816080936E0010928100BF
:100BF000809181008260809381008091810081607A
:100C0000809381008091800081608093800080913A
:100C1000B10084608093B1008091B00081608093C6
:100C2000B00080917A00846080937A0080917A008D
:100C3000826080937A0080917A00816080937A004C
:100C400080917A00806880937A001092C100E091D0
:100C50006701F091680182E08083E0916301F09187
:100C600064011082E0916501F09166018FEC808350
:100C700010926F01E0916B01F0916C0186E080832E
:100C8000E0916901F0916A01808180618083E09147
:100C90006901F0916A01808188608083E091690137
:100CA000F0916A01808180688083E0916901F09110
:100CB0006A0180818F7D808390E080E00E949507AB
:100CC0001BA21AA21DA21CA21FA21EA22AE08E0114
:100CD0000F5F1F4FA8010E945307F80101900020E9
:100CE000E9F73197AF01401B510BB801CE01829655
:100CF0000E9451048091650290916602009709F468
:100D000078C06AA17BA16115710509F470C040919A
:100D10006702509168022EA13FA14217530708F4C1
:100D200066C00E94C3098EA19FA190936A0280931E
:100D300069021FA21EA28AA19BA1009711F00E9426
:100D40007408809169028093470144E050E068E3B1
:100D500071E085E692E00E9451040E947701609361
:100D6000490170934A0180934B0190934C0180E0BC
:100D7000E82E80E0F82E0E94DF01182F80934D01AD
:100D8000682F87E591E00E94C7031A3231F50E946F
:100D900077016093490170934A0180934B019093CE
:100DA0004C01109248010E94DF01182F80934D01E1
:100DB000811136C00E9477010091490110914A01CA
:100DC00020914B0130914C01601B710B820B930BF6
:100DD000613177428105910530F3E114F10459F254
:100DE0000E949103882339F20E940000C4CF0E9420
:100DF00074088AA19BA190936602809365028CA1DE
:100E00009DA190936802809367028EA19FA1909309
:100E10006A02809369021BA21AA21DA21CA289CF9A
:100E20000E9477016093490170934A0180934B01BE
:100E300090934C0180914801282F30E04091690245
:100E400050916A022417350730F4E0916502F09161
:100E500066023097A9F410924601E6E4F1E0908131
:100E6000191311C08F5F80934801909148018091C0
:100E7000470198130BC08DE391E00E943404ADCF7D
:100E8000E20FF31FECCF10924801EFCF133209F0BD
:100E900091CFA3CF8091650290916602009711F0E7
:100EA0000C9474080895BB27FA01A62F62177105E8
:100EB00081059105330B30FB66F0AA27660F771F7B
:100EC000881F991FAA1FA21710F0A21B6395385004
:100ED000A9F7A05DAA3308F0A95DA19336F7B11177
:100EE000B1931082CA010C947507DC01FC01672FD5
:100EF00071917723E1F7329704C07C916D937083F1
:100F00006291AE17BF07C8F30895DC01CB01FC0165
:100F1000F999FECF06C0F2BDE1BDF89A319600B452
:100F20000D9241505040B8F70895A6E1B0E044E07A
:100F300050E00C9487072F923F924F925F926F92EE
:100F40007F928F929F92AF92BF92CF92DF92EF9259
:100F5000FF920F931F93CF93DF93CDB7DEB7CA1BDA
:100F6000DB0B0FB6F894DEBF0FBECDBF09942A8805
:100F7000398848885F846E847D848C849B84AA84AD
:100F8000B984C884DF80EE80FD800C811B81AA813A
:100F9000B981CE0FD11D0FB6F894DEBF0FBECDBF05
:100FA000ED010895EE0FFF1F0590F491E02D0994D7
:100FB0000F931F93CF93DF938230910510F482E05B
:100FC00090E0E0916D02F0916E0230E020E0B0E040
:100FD000A0E0309799F42115310509F44AC0281B87
:100FE000390B24303105D8F58A819B816115710553
:100FF00089F1FB0193838283FE0111C040815181FD
:101000000281138148175907E0F04817590799F4EE
:10101000109761F012960C93129713961C933296C8
:10102000CF01DF91CF911F910F91089500936D0231
:1010300010936E02F4CF2115310551F0421753077A
:1010400038F0A901DB019A01BD01DF01F801C1CF30
:10105000EF01F9CF90936E0280936D02CDCFFE0128
:10106000E20FF31F81939193225031093983288332
:10107000D7CF20916B0230916C02232B41F4209149
:1010800015013091160130936C0220936B02209170
:101090001301309114012115310541F42DB73EB7EC
:1010A0004091170150911801241B350BE0916B0200
:1010B000F0916C02E217F307A0F42E1B3F0B2817E8
:1010C000390778F0AC014E5F5F4F2417350748F0C1
:1010D0004E0F5F1F50936C0240936B02819391936C
:1010E0009FCFF0E0E0E09CCFCF93DF930097E9F053
:1010F000FC01329713821282A0916D02B0916E02B0
:10110000ED0130E020E01097A1F420813181820FC1
:10111000931F20916B0230916C022817390709F058
:1011200061C0F0936C02E0936B02DF91CF91089560
:10113000EA01CE17DF07E8F54A815B819E01411580
:101140005105B1F7E901FB83EA8349915991C40F35
:10115000D51FEC17FD0761F4808191810296840F01
:10116000951FE90199838883828193819B838A8378
:10117000F0E0E0E012968D919C9113970097B9F5FD
:101180002D913C911197CD010296820F931F2091D2
:101190006B0230916C022817390739F6309751F5F8
:1011A00010926E0210926D02B0936C02A0936B02CB
:1011B000BCCFD383C28340815181840F951FC81750
:1011C000D90761F44E5F5F4F88819981480F591F9D
:1011D000518340838A819B819383828321153105CA
:1011E00009F0B0CFF0936E02E0936D029ECFFD0147
:1011F000DC01C0CF13821282D7CFB0E0A0E0E3E0E1
:10120000F9E00C949D078C01009751F4CB010E94EA
:10121000D8078C01C801CDB7DEB7E0E10C94B9075F
:10122000FC01E60FF71F9C0122503109E217F3077A
:1012300008F49DC0D901CD91DC911197C617D7074D
:1012400098F0C530D10530F3CE0104978617970783
:1012500008F3C61BD70B2297C193D1936D937C9350
:10126000CF010E947408D6CF5B01AC1ABD0A4C01B5
:101270008C0E9D1EA0916D02B0916E02512C412CDE
:10128000F12CE12C109731F580916B0290916C025A
:101290008815990509F05CC04616570608F058C035
:1012A0008091130190911401009741F48DB79EB77E
:1012B0004091170150911801841B950BE817F9070D
:1012C00008F055C0F0936C02E0936B02F901718352
:1012D0006083A0CF8D919C91119712966C9012977C
:1012E00013967C901397A815B90559F56C0142E047
:1012F000C40ED11CCA14DB0420F1AC014A195B09ED
:10130000DA011296159780F06282738251834083CE
:10131000D9016D937C93E114F10471F0D701139618
:10132000FC93EE93129776CF22968C0F9D1FF901B6
:1013300091838083F301EFCFF0936E02E0936D020F
:1013400069CF4816590608F42C017D01D3019ACFC4
:10135000CB010E94D8077C01009749F0AE01B8018B
:101360000E94BA09C8010E947408870153CF10E097
:1013700000E050CFFB01DC0102C001900D92415012
:101380005040D8F70895FB01DC0101900D92002038
:10139000E1F7089510E0C2E6D0E004C0FE010E942B
:1013A000D2072196C336D107C9F7F894FFCF0807B3
:1013B000060C0B0A093132333435363738392A30C6
:1013C0002300006F02800000000000C703270354C1
:1013D00003140485036303770300000000730133E3
:1013E0000102010D0A003132333400537563636525
:0413F0007373000013
:107E0000112484B714BE81FFF0D085E080938100F7
:107E100082E08093C00088E18093C10086E0809377
:107E2000C20080E18093C4008EE0C9D0259A86E02C
:107E300020E33CEF91E0309385002093840096BBD3
:107E4000B09BFECF1D9AA8958150A9F7CC24DD24C4
:107E500088248394B5E0AB2EA1E19A2EF3E0BF2EE7
:107E6000A2D0813461F49FD0082FAFD0023811F036
:107E7000013811F484E001C083E08DD089C08234E0
:107E800011F484E103C0853419F485E0A6D080C0E4
:107E9000853579F488D0E82EFF2485D0082F10E0AE
:107EA000102F00270E291F29000F111F8ED06801E7
:107EB0006FC0863521F484E090D080E0DECF843638
:107EC00009F040C070D06FD0082F6DD080E0C81688
:107ED00080E7D80618F4F601B7BEE895C0E0D1E017
:107EE00062D089930C17E1F7F0E0CF16F0E7DF06D8
:107EF00018F0F601B7BEE89568D007B600FCFDCFD4
:107F0000A601A0E0B1E02C9130E011968C91119780
:107F100090E0982F8827822B932B1296FA010C0160
:107F200087BEE89511244E5F5F4FF1E0A038BF0790
:107F300051F7F601A7BEE89507B600FCFDCF97BE46
:107F4000E89526C08437B1F42ED02DD0F82E2BD052
:107F50003CD0F601EF2C8F010F5F1F4F84911BD097
:107F6000EA94F801C1F70894C11CD11CFA94CF0C13
:107F7000D11C0EC0853739F428D08EE10CD085E9AC
:107F80000AD08FE07ACF813511F488E018D01DD067
:107F900080E101D065CF982F8091C00085FFFCCF94
:107FA0009093C60008958091C00087FFFCCF809118
:107FB000C00084FD01C0A8958091C6000895E0E648
:107FC000F0E098E1908380830895EDDF803219F02E
:107FD00088E0F5DFFFCF84E1DECF1F93182FE3DFCA
:107FE0001150E9F7F2DF1F91089580E0E8DFEE27F6
:047FF000FF270994CA
:027FFE00040479
:00000001FF
